:100000000C9405290C9432290C9432290C94322931
:100010000C9432290C9432290C9432290C943229F4
:100020000C9432290C9432290C9432290C943229E4
:100030000C9432290C9432290C9432290C943229D4
:100040000C9432290C94A9930C9432290C943229E3
:100050000C9432290C9432290C943C9D0C94B5E7F5
:100060000C9432290C9497690C9432290C943229FF
:100070000C9432290C9432290C9432290C94322994
:100080000C9432290C9432290C9432290C94322984
:100090000C9432290C9432290C9432290C94322974
:1000A0000C9432290C9432290C9432290C94322964
:1000B0000C9432290C9432290C9432290C94322954
:1000C0000C9432290C9432290C9432290C94322944
:1000D0000C9432290C9432290C9432290C94322934
:1000E0000C943229084AD73B3BCE016E84BCBFFD3D
:1000F000C12F3D6C74319ABD56833DDA3D00C77FF8
:1001000011BED9E4BB4C3E916BAAAABE0000008090
:100110003F05A84CCDB2D44EB93836A9020C50B91F
:10012000918688083CA6AAAA2ABE000000803F4DFE
:10013000383420582059205A20450043616E6E6F94
:100140007420656E746572207375626469723A20FA
:10015000004D3234004D3233202573006175746FC9
:1001600025692E67006572726F72207772697469F3
:100170006E6720746F2066696C65004E6F74205343
:1001800044207072696E74696E67002F00534420BA
:100190007072696E74696E67206279746520002ED2
:1001A0000044656C6574696F6E206661696C656496
:1001B0002C2046696C653A200046696C65206465B0
:1001C0006C657465643A002E006F70656E20666120
:1001D000696C65642C2046696C653A200057726929
:1001E00074696E6720746F2066696C653A20002E12
:1001F000006F70656E206661696C65642C204669CD
:100200006C653A20002E006F70656E206661696C27
:1002100065642C2046696C653A200046696C65204F
:1002200073656C6563746564002053697A653A2070
:100230000046696C65206F70656E65643A20002E1B
:10024000006F70656E206661696C65642C2046697C
:100250006C653A20004E6F77206672657368206681
:10026000696C653A20004E6F7720646F696E672075
:1002700066696C653A20002220706F73002220703E
:100280006172656E743A2200535542524F5554497B
:100290004E452043414C4C207461726765743A228C
:1002A00000747279696E6720746F2063616C6C20D2
:1002B0007375622D67636F64652066696C65732072
:1002C0007769746820746F6F206D616E79206C653A
:1002D00076656C732E204D4158206C6576656C20D8
:1002E00069733A0053442063617264206F6B006F3E
:1002F00070656E526F6F74206661696C656400761C
:100300006F6C756D652E696E6974206661696C65C8
:100310006400534420696E6974206661696C00480A
:10032000617264636F6465642044656661756C74B2
:100330002053657474696E6773204C6F61646564E3
:100340000053746F7265642073657474696E6773AB
:1003500020726574726965766564002044002049E6
:10036000002020204D33303120500050494420736C
:10037000657474696E67733A00205A002059002032
:10038000204D323036205800486F6D65206F66660C
:1003900073657420286D6D293A00204500205A00AD
:1003A00020580020420020540020204D32303520BB
:1003B0005300416476616E636564207661726961A1
:1003C000626C65733A20533D4D696E2066656564C5
:1003D0007261746520286D6D2F73292C20543D4D5A
:1003E000696E2074726176656C2066656564726101
:1003F000746520286D6D2F73292C20423D6D696E28
:10040000696D756D207365676D656E742074696DB7
:100410006520286D73292C20583D6D6178696D75B4
:100420006D205859206A65726B20286D6D2F7329D5
:100430002C20205A3D6D6178696D756D205A206AB7
:1004400065726B20286D6D2F73292C2020453D6D22
:100450006178696D756D2045206A65726B20286D25
:100460006D2F73290020540020204D32303420534A
:1004700000416363656C65726174696F6E3A205305
:100480003D616363656C65726174696F6E2C2054A5
:100490003D7265747261637420616363656C65723B
:1004A0006174696F6E00204500205A0020590020B9
:1004B000204D3230312058004D6178696D756D20C6
:1004C000416363656C65726174696F6E20286D6D40
:1004D0002F7332293A00204500205A00205900206D
:1004E000204D3230332058004D6178696D756D2094
:1004F00066656564726174657320286D6D2F73295C
:100500003A00204500205A0020590020204D393261
:1005100020580053746570732070657220756E6981
:10052000743A005A70726F62653A200053657474B1
:10053000696E67732053746F726564004572726FE1
:10054000723A006563686F3A00504152414441007D
:100550005072696E7465722073746F707065642078
:1005600064756520746F206572726F72732E2046F9
:10057000697820746865206572726F7220616E649C
:1005800020757365204D39393920746F2072657379
:10059000746172742E202854656D70657261747573
:1005A00072652069732072657365742E20536574BB
:1005B000206974206166746572207265737461725B
:1005C00074696E67290050415241444120444520DE
:1005D000454D4552472E005072696E746572206811
:1005E000616C7465642E206B696C6C2829206361D2
:1005F0006C6C656421006F6B00526573656E643AC4
:1006000020002200556E6B6E6F776E20636F6D6DEC
:10061000616E643A20220043616D626961722066F6
:10062000696C616D656E746F004F666673657420EA
:100630005A203A20007A5F6D61783A20007A5F6D27
:10064000696E3A20004F6666736574205A004F66E3
:1006500066736574205A206F6B006C636420636F4F
:100660006E74726173742076616C75653A20007ADD
:100670005F6D61783A20007A5F6D696E3A2000798B
:100680005F6D61783A2000795F6D696E3A2000787D
:100690005F6D61783A2000785F6D696E3A200020C6
:1006A0005A3A0020593A0020436F756E7420583A28
:1006B000200020453A00205A3A0020593A00583A82
:1006C000004649524D574152455F4E414D453A4DC6
:1006D00061726C696E2056312E302E323B20537081
:1006E00072696E7465722F6772626C206D617368D7
:1006F000757020666F722067656E36204649524DD0
:10070000574152455F55524C3A68747470733A2F92
:100710002F6769746875622E636F6D2F4D61726CFF
:10072000696E4669726D776172652F4D61726C6991
:100730006E2050524F544F434F4C5F5645525349D1
:100740004F4E3A312E30204D414348494E455F547B
:100750005950453A44494D413130303020342045DC
:10076000585452554445525F434F554E543A3120E8
:10077000555549443A30303030303030302D3030FB
:1007800030302D303030302D303030302D30303072
:100790003030303030303030300A0044494D413153
:1007A0003030302034204F66662E0044494D4131B0
:1007B0003030302034207072657061726164610085
:1007C00042656420646F6E652E0020423A00204529
:1007D0003A00543A004265642048656174696E6766
:1007E0002E0048656174696E6720646F6E652E0027
:1007F00020573A0020453A00543A00486561746930
:100800006E672E2E2E002042403A0020403A0020F3
:100810002F003A00205400202F0020423A00202FC1
:10082000006F6B20543A002569206D696E2C2025DD
:10083000692073656300456E642066696C65206C91
:1008400069737400426567696E2066696C65206C27
:100850006973740053696E206D6F76696D69656E9A
:10086000746F0044494D4131303030203420707273
:1008700065706172616461005265616E7564616E7C
:10088000646F20696D7072652E00457370657261CA
:100890006E646F206F7264656E6573004D3834202E
:1008A000582059205A2045004732382058005265B8
:1008B000706F736F2E2E2E00FFFFFF0080ED430040
:1008C000007F430000A5430000A0400000A04000BE
:1008D00000004000000000000000000000000000D8
:1008E00000000000000000000000000080ED430058
:1008F000007F430000A543256920686F757273204F
:100900002569206D696E7574657300446F6E65208E
:100910007072696E74696E672066696C650050411B
:1009200052414441005072696E7465722073746F55
:10093000707065642064756520746F206572726FD5
:1009400072732E2046697820746865206572726F14
:100950007220616E6420757365204D3939392074B9
:100960006F20726573746172742E202854656D70E7
:100970006572617475726520697320726573657440
:100980002E2053657420697420616674657220722C
:10099000657374617274696E6729004E6F204C69CB
:1009A0006E65204E756D626572207769746820638C
:1009B0006865636B73756D2C204C617374204C6992
:1009C0006E653A20004E6F20436865636B73756DEA
:1009D0002077697468206C696E65206E756D62653C
:1009E000722C204C617374204C696E653A20006350
:1009F0006865636B73756D206D69736D6174636891
:100A00002C204C617374204C696E653A20004C694F
:100A10006E65204E756D626572206973206E6F740D
:100A2000204C617374204C696E65204E756D626553
:100A3000722B312C204C617374204C696E653A2006
:100A4000004D31313000446F6E6520736176696E00
:100A5000672066696C652E006F6B004D323900208F
:100A600020506C616E6E6572427566666572427981
:100A70007465733A20002046726565204D656D6F80
:100A800072793A20004A756C20333120323031358A
:100A900000436F6D70696C65643A2000286E6F6E5C
:100AA000652C2064656661756C7420636F6E666981
:100AB000672900207C20417574686F723A20004AD3
:100AC000756C20333120323031352031343A3338AF
:100AD0003A323700204C617374205570646174653C
:100AE000643A2000312E302E32004D61726C696EF6
:100AF0000020536F66747761726520526573657468
:100B000000205761746368646F6720526573657471
:100B1000002042726F776E206F7574205265736586
:100B200074002045787465726E616C20526573653F
:100B30007400506F77657255700073746172740041
:100B40002200656E717565696E672022002200655E
:100B50006E717565696E6720220020746F6F206C5E
:100B60006F6E6720657874727573696F6E2070722E
:100B70006576656E7465640020636F6C64206578CB
:100B800074727573696F6E2070726576656E7465C8
:100B900064007C3C3E5E2B3D3F2F5B5D3B2C2A225C
:100BA0005C0045303A20005A3A2000593A2000585B
:100BB0003A20004D53312C4D53322050696E730A48
:100BC0000024F404D9201BC40C5C0E9804C4095FF3
:100BD0000265077101F405F900FB04B300480487BE
:100BE00000C10369005803550003034500BE023AE3
:100BF000008402310053022A002902250004022049
:100C000000E4011C00C8011900AF0117009801148D
:100C10000084011300710110006101100051010EE8
:100C20000043010D0036010B002B010B0020010BCE
:100C300000150109000C01090003010800FB000870
:100C400000F3000800EB000700E4000600DE0006E9
:100C500000D8000600D2000600CC000500C7000541
:100C600000C2000500BD000400B9000400B5000486
:100C700000B1000400AD000400A9000400A50003B9
:100C800000A20003009F0004009B000300980003E3
:100C9000009500020093000300900003008D000205
:100CA000008B00030088000200860002008400031D
:100CB00000810002007F0002007D0002007B000234
:100CC0000079000200770001007600020074000243
:100CD0000072000100710002006F0002006D00014F
:100CE000006C0002006A0001006900020067000158
:100CF000006600010065000100640002006200015E
:100D00000061000100600001005F0002005D000161
:100D1000005C0001005B0001005A00010059000165
:100D20000058000100570001005600010055000165
:100D30000054000100530000005300010052000164
:100D40000051000100500001004F0001004E000062
:100D5000004E0001004D0001004C0001004B00005E
:100D6000004B0001004A000100490001004800005A
:100D70000048000100470001004600000046000155
:100D80000045000000450001004400010043000050
:100D90000043000100420000004200010041000049
:100DA0000041000100400001003F0000003F000141
:100DB000003E0000003E0001003D0000003D00013B
:100DC000003C0000003C0000003C0001003B000033
:100DD000003B0001003A0000003A00010039000029
:100DE0000039000100380000003800000038000120
:100DF0000037000000370001003600000036000018
:100E0000003600010035000000350000003500010B
:100E10000034000000340000003400010033000002
:100E200000330000003300010032000000320000F7
:100E300000320001003100000031000000310001EB
:100E4000003000000030000000300001002F0000E2
:100E5000002F0000002F0000002F0001002E0000D6
:100E6000002E0000002E0001002D0000002D0000CB
:100E7000002D0000002D0001002C0000002C0000BF
:100E8000002C0000002C0001002B0000002B0000B3
:100E9000002B0000002B0001002A0000002A0000A7
:100EA000002A0000002A000100290000002900009B
:100EB000002900000029000000290001002800008E
:100EC0000028000000280000002800000028000181
:100ED0000027000000270000002700000027000076
:100EE0000027000100260000002600000026000068
:100EF000002600000026000100250000002500005B
:100F0000002500000025000000250000002500014C
:100F10000024000000240000002400000024000041
:100F20000024000100230000002300000023000033
:100F30000023000000230000002300000023000124
:100F40000022000000220000002200000022000019
:100F5000002200000022000100210000002100000A
:100F600000210000002100000021000000210000FD
:100F700000210001002000000020000000200000EF
:100F800000200000002000000020000000200000E1
:100F900000200001001F0000001F0000001F0000D3
:100FA000001F0000001F0000001F0000001F0001C4
:100FB000001E0000001E0000001E0000001E0000B9
:100FC0000024F4D43050C38E20C2A24017828B700C
:100FD00011127A910D816CD90AA861E108C758668F
:100FE00007615143061E4B5D05C145A7041A411117
:100FF00004093D9803713931034036DB02653391B2
:1010000002D4305402802E1D02632CEE01752AC5D5
:1010100001B028A001102781018F2564012B244BEA
:1010200001E0223401AC211F018D200D01801FFC45
:1010300000841EED00971DDF00B81CD200E61BC621
:1010400000201BBC00641AB200B219A8000A19A043
:10105000006A189900D117910040178B00B51684CB
:101060000031167E00B31579003A157300C7146F6E
:101070000058146A00EE1366008813630025135E9F
:1010800000C7125B006C12570015125400C11151B9
:101090000070114F0021114B00D61049008D1047F0
:1010A000004610440002104200C00F4000800F3E76
:1010B00000420F3C00060F3B00CB0E3800930E376A
:1010C000005C0E3500270E3400F30D3200C10D31E7
:1010D00000900D3000600D2E00320D2D00050D2CFE
:1010E00000D90C2B00AE0C2900850C29005C0C27C4
:1010F00000350C27000E0C2600E80B2400C40B243E
:1011000000A00B23007D0B23005A0B2100390B217B
:1011100000180B2000F80A1F00D90A1E00BB0A1E87
:10112000009D0A1D00800A1D00630A1C00470A1B5F
:10113000002C0A1B00110A1A00F7091A00DD091910
:1011400000C4091900AB091900920917007B09189E
:1011500000630917004C091600360916002009160D
:10116000000A091500F5081500E0081400CC081461
:1011700000B8081400A4081400900813007D081299
:10118000006B0813005808120046081200340811BA
:1011900000230811001208110001081100F00710C7
:1011A00000E0071000D0071000C0071000B0070FC4
:1011B00000A107100091070E0083070F0074070FAE
:1011C0000065070E0057070E0049070E003B070D8C
:1011D000002E070E0020070D0013070D0006070D57
:1011E00000F9060C00ED060D00E0060C00D4060C1C
:1011F00000C8060C00BC060C00B0060C00A4060BD0
:101200000099060C008D060B0082060B0077060B7A
:10121000006C060B0061060A0057060B004C060A1C
:101220000042060A0038060A002E060A0024060AB2
:10123000001A060A001006090007060A00FD050943
:1012400000F4050900EB050900E2050900D90509CC
:1012500000D0050900C7050900BE050900B505084D
:1012600000AD050800A50509009C050800940508C7
:10127000008C050800840508007C0508007405083A
:10128000006C050700650508005D050700560508A8
:10129000004E050700470507004005080038050710
:1012A00000310507002A050700230507001C050675
:1012B00000160507000F05070008050600020507D0
:1012C00000FB040600F5040700EE040600E804062F
:1012D00000E2040700DB040600D5040600CF040684
:1012E00000C9040600C3040600BD040600B70406D6
:1012F00000B1040500AC040600A6040600A0040525
:10130000009B04060095040500900406008A04056D
:101310000085040500800406007A040500750405B4
:1013200000700405006B04050066040500610405F7
:10133000005C04050057040500520405004D040537
:101340000048040500430405003E0404003A040577
:101350000035040500300404002C040500270404B3
:1013600000230405001E0404001A040400160405EA
:1013700000110404000D0404000904050004040421
:101380000000040400FC030400F8030400F4030458
:1013900000F0030400EC030400E8030400E4030489
:1013A00000E0030400DC030400D8030400D40304B9
:1013B00000D0030400CC030400C8030300C50303EA
:1013C00000656E6473746F7073206869743A205A94
:1013D00000205A3A00656E6473746F7073206869F8
:1013E000743A20590020593A00656E6473746F7026
:1013F00073206869743A20580020583A00656E647A
:1014000073746F7073206869743A20004572723A81
:10141000204D415854454D50204245440054656D7F
:1014200070657261747572652068656174656420A9
:10143000626564207377697463686564206F6666AB
:101440002E204D415854454D502074726967676590
:10145000726564202121004572723A204D494E5434
:10146000454D50003A20457874727564657220735A
:1014700077697463686564206F66662E204D494EF7
:1014800054454D5020747269676765726564202108
:10149000004572723A204D415854454D50003A2053
:1014A00045787472756465722073776974636865D2
:1014B00064206F66662E204D415854454D5020746F
:1014C0007269676765726564202100202D20496E6E
:1014D00076616C6964206578747275646572206EDB
:1014E000756D6265722021001000C90210012C0187
:1014F0004001220170011801B0010E01F001040148
:101500005002FA00B002F0003003E600D003DC0025
:101510009004D2007005C800A006BE000008B40008
:10152000B009AA00D00BA000600E960060118C00DC
:101530000015820020197800C01D6E00A0226400F2
:10154000B0275A00902C500000314600E0343C0097
:1015500010383200903A2800603C1E00A03D140074
:10156000803E0A00203F000070012C0190012701FD
:10157000B0012201C0011D01F00118011002130188
:1015800030020E016002090190020401C002FF0056
:101590000003FA004003F5008003F000D003EB00E5
:1015A0002004E6007004E100E004DC004005D70000
:1015B000C005D2004006CD00D006C8008007C30099
:1015C0003008BE00F008B900C009B400B00AAF008E
:1015D000B00BAA00D00CA500000EA000500F9B007D
:1015E000C01096005012910000148C00C0158700A6
:1015F000B0178200B0197D00D01B7800001E730068
:1016000040206E0090226900F024640040275F00B3
:1016100090295A00E02B5500102E500020304B002E
:1016200010324600E033410090353C00103737005F
:1016300070383200A0392D00B03A2800A03B2300BA
:10164000603C1E00103D1900903D1400103E0F003C
:10165000703E0A00C03E0500003F00005049442093
:101660004175746F74756E652066696E697368651F
:1016700064212050757420746865206C6173742037
:101680004B702C204B6920616E64204B6420636F8B
:101690006E7374616E74732066726F6D2061626F19
:1016A000766520696E746F20436F6E666967757228
:1016B0006174696F6E2E6800504944204175746FE3
:1016C00074756E65206661696C6564212074696D4E
:1016D000656F75740020403A006F6B20543A006FBC
:1016E0006B20423A00504944204175746F74756E06
:1016F00065206661696C6564212054656D70657252
:10170000617475726520746F6F2068696768002066
:101710004B643A2000204B693A2000204B703A205D
:101720000020436C6173736963205049442000209A
:1017300054753A2000204B753A2000206D61783AAC
:101740002000206D696E3A200020643A200020625B
:101750006961733A200000091200FC0A01E803D70E
:1017600020FFFD0EFD0BFD00000009000E010B0B1C
:1017700009040080808080808080000080800404D4
:101780000409030790909090080A0A090000242495
:1017900024FF2424FF242424070B0B0901FF107CC1
:1017A000929050381412927C10070A0A09010042E4
:1017B000A4A4481010244A4A84070A0A09010060B8
:1017C00090909060629488946201040409040780F8
:1017D000808080030C0C0903FF20404080808080C3
:1017E0008080404020030C0C0903FF8040402020F3
:1017F0002020202040408007070709010310925451
:1018000038549210070707090101101010FE10103C
:10181000100204040904FEC0C04080070101090150
:1018200004FE020202090400C0C0070A0A090100FE
:1018300002040408101020404080070A0A09010031
:1018400038448282828282824438070A0A0901006F
:10185000103050901010101010FE070A0A090100F5
:10186000384482020408102040FE070A0A090100D9
:10187000FE020408180402028478070A0A0901001B
:10188000040C14244484FE040404070A0A09010019
:10189000FE808080F80402028478070A0A090100A9
:1018A0003C408080B8C482824438070A0A0901009B
:1018B000FE020404080810101010070A0A090100AB
:1018C00038448244384482824438070A0A090100B5
:1018D00038448282463A020204780207070904006B
:1018E000C0C0000000C0C00209090904FEC0C00059
:1018F0000000C0C04080050909090200081020400E
:101900008040201008070404090102FE0000FE05C3
:101910000909090200804020100810204080070AB1
:101920000A09010038448202040810100010070A56
:101930000A09010038449AAAAAAAAA9C403C070AAC
:101940000A09010010282828447C44828282070A60
:101950000A090100F8848284F884828284F8070AE4
:101960000A0901003C42808080808080423C070A56
:101970000A090100F88482828282828284F8070A3E
:101980000A090100FE808080F880808080FE070ABE
:101990000A090100FE808080F88080808080070A2C
:1019A0000A09010038448280808E82824438070A06
:1019B0000A09010082828282FE8282828282050A74
:1019C0000A090200F82020202020202020F8070A01
:1019D0000A0901003E080808080808888870070AF4
:1019E0000A09010082848890A0D088848282070A34
:1019F0000A090100808080808080808080FE070A44
:101A00000A0901008282C6AA928282828282070A21
:101A10000A0901008282C2A2928A86828282070A11
:101A20000A0901007C82828282828282827C070A89
:101A30000A090100F884828284F880808080080B83
:101A40000B0901FF384482828282828A443A01076C
:101A50000A0A090100F884828284F8908884820747
:101A60000A0A0901007C8280807C020202827C07D3
:101A70000A0A090100FE10101010101010101007B3
:101A80000A0A0901008282828282828282443807A5
:101A90000A0A090100828282444444282828100747
:101AA0000A0A0901008282828292929292AA4407D3
:101AB0000A0A090100828244281010284482820701
:101AC0000A0A090100828244281010101010100721
:101AD0000A0A090100FE0204081020408080FE046A
:101AE0000C0C0903FFF080808080808080808080E3
:101AF000F0070A0A09010080404020101008040481
:101B000002040C0C0902FFF010101010101010103D
:101B10001010F0070404090106102844820801018E
:101B20000900FFFF03030309030A8040200707079A
:101B30000901007C02027E82867A070A0A090100F6
:101B4000808080BCC2828282C2BC07070709010074
:101B50007C82808080827C070A0A090100020202DE
:101B60007A86828282867A0707070901007C828250
:101B7000FE80827C070A0A0901001C22222020F82C
:101B800020202020070A0A0901FD7A8484847880B5
:101B90007C82827C070A0A090100808080BCC282A4
:101BA00082828282050A0A090200600000E0202089
:101BB000202020F8050D0D0902FD18000038080846
:101BC00008080808888870070A0A090100808080D0
:101BD000848890B0C88482050A0A090200E02020A7
:101BE000202020202020F8070707090100EC92920E
:101BF00092929282070707090100BCC28282828208
:101C0000820707070901007C82828282827C070AA0
:101C10000A0901FDB8C4828282C4B8808080070AA4
:101C20000A0901FD3A46828282463A020202070709
:101C3000070901009C624240404040070707090134
:101C4000007C82807C02827C070909090100202037
:101C5000FC20202020221C07070709010082828225
:101C60008282867A07070709010082824444282875
:101C7000100707070901008282929292AA4407077F
:101C80000709010082442810284482070A0A090132
:101C9000FD42422424241818109060070707090108
:101CA00000FE0408102040FE060B0B0902001C2059
:101CB000202020C0202020201C010C0C0904FF80C3
:101CC0008080808080808080808080060B0B09016E
:101CD00000E0101010100C10101010E007030309A2
:101CE000010762928CFFFFFFFFFFFFFFFFFFFFFF77
:101CF000FFFFFFFFFFFFFFFFFFFFFFFFFFFFFFFFF4
:101D0000FFFFFFFFFFFF00000009000E010B0B09A2
:101D10000400808000008080808080808006080829
:101D200009010008789490A0A47840070A0A0901E4
:101D3000001C222020F8202060A25C070606090172
:101D400003827C44447C82070A0A0901008282449F
:101D5000287C107C101010010B0B0904FF80808080
:101D60008080008080808080040B0B0902FF6090DF
:101D700080609090906010906003020209030BA0B5
:101D8000A00809090900013C4299A5A1A599423C76
:101D9000050707090103609070907800F8070808AC
:101DA00009010112244890904824120604040901F4
:101DB00002FC040404050101090204F808090909E8
:101DC00000013C42B9A5BDA9A5423C06010109019B
:101DD00009FC0404040903066090906007090909DE
:101DE0000101101010FE10101000FE04060609017B
:101DF000046090106080F0040606090104609020E1
:101E000010906003030309030A20408007090909B1
:101E100001FE8282828282C6BA8080070A0A090194
:101E2000007E8A8A8A7A0A0A0A0A0A0202020904D7
:101E300004C0C00403030902FD20906003060609E4
:101E4000010440C0404040E00506060901047088D6
:101E5000887000F80708080901019048241212242C
:101E60004890070A0A09010040C0404042E60A12B1
:101E70001A06070A0A09010040C040404CF2020C51
:101E8000101E070A0A0901006090201092660A12CB
:101E90001A06070A0A09010010001010204080826B
:101EA000827C070E0E090100201008001028282847
:101EB000447C44828282070E0E0901000810200033
:101EC00010282828447C44828282070E0E090100D3
:101ED0001028440010282828447C44828282070D60
:101EE0000D09010034580010282828447C448282BF
:101EF00082070D0D09010028280010282828447C9D
:101F000044828282070E0E09010010282810102832
:101F10002828447C44828282070A0A0901001E287C
:101F200028284E784888888E070D0D0901FD3C420F
:101F3000808080808080423C082418070E0E0901B2
:101F40000020100800FE808080F880808080FE07DE
:101F50000E0E09010008102000FE808080F88080AD
:101F60008080FE070E0E09010010284400FE8080CC
:101F700080F880808080FE070D0D09010028280070
:101F8000FE808080F880808080FE050E0E090200B1
:101F900040201000F82020202020202020F8050ECE
:101FA0000E09020010204000F820202020202020D0
:101FB00020F8050E0E09020020508800F82020208D
:101FC0002020202020F8050D0D090200505000F8B7
:101FD0002020202020202020F8070A0A090100786C
:101FE000444242F24242424478070D0D0901003456
:101FF00058008282C2A2928A86828282070E0E09CD
:102000000100201008007C82828282828282827C8F
:10201000070E0E090100081020007C828282828255
:102020008282827C070E0E090100102844007C8207
:10203000828282828282827C070D0D0901003458DF
:10204000007C82828282828282827C070D0D09015D
:10205000002828007C82828282828282827C07071A
:102060000709010182442810284482070C0C090149
:10207000FF027C868A8A9292A2A2C27C80070E0E00
:1020800009010020100800828282828282828244BA
:1020900038070E0E09010008102000828282828219
:1020A0008282824438070E0E090100102844008203
:1020B000828282828282824438070D0D09010028C3
:1020C000280082828282828282824438070E0E0930
:1020D00001000810200082824428101010101010F7
:1020E000070A0A0901008080FC828282FC808080CD
:1020F000060A0A09010038444448D0484444445878
:10210000070B0B090100201008007C02027E82866A
:102110007A070B0B090100081020007C02027E8266
:10212000867A070B0B090100102844007C02027E0E
:1021300082867A070A0A0901003458007C02027E6E
:1021400082867A070A0A0901002828007C02027E9A
:1021500082867A070C0C09010010282810007C02E6
:10216000027E82867A0707070901006C12127E90B0
:10217000926C070A0A0901FD7C82808080827C10B3
:102180004830070B0B090100201008007C8282FEFA
:1021900080827C070B0B090100081020007C8282E2
:1021A000FE80827C070B0B090100102844007C8212
:1021B00082FE80827C070A0A0901002828007C82AE
:1021C00082FE80827C050C0C090200804020000009
:1021D000E02020202020F8050C0C090200102040EF
:1021E0000000E02020202020F8050C0C090200202F
:1021F00050880000E02020202020F8050B0B090269
:102200000050500000E02020202020F8070B0B0990
:102210000100483050083C448282824438070A0A50
:10222000090100345800BCC28282828282070B0BF3
:10223000090100201008007C82828282827C070BC8
:102240000B090100081020007C82828282827C07B8
:102250000B0B090100102844007C82828282827C60
:10226000070A0A0901003458007C82828282827C3B
:10227000070A0A0901002828007C82828282827C67
:1022800007090909010010381000FE001038100776
:1022900009090901FF027C8A8A92A2A27C80070BAD
:1022A0000B090100402010008282828282867A0718
:1022B0000B0B090100081020008282828282867A3C
:1022C000070B0B090100102844008282828282865B
:1022D0007A070A0A090100282800828282828286FF
:1022E0007A070E0E0901FD0408100042422424243E
:1022F0001818109060070B0B0901FE8080B8C4828B
:102300008282C4B88080070D0D0901FD242400429B
:10231000422424241818109060001C1CF6F90C02AA
:1023200050055520FFFC11FB0FFC000000040000CD
:10233000020F0F0502FF8080808080808080808077
:102340000000C0C080060606080108CC4C4848487A
:1023500048080B0B0901011A12127F242424FE489D
:102360004850070F0F0901FE10107E9490D0701C8A
:1023700016129292FC10100B0B160D01007040907B
:102380008089808B00920075C00A201A20122022BA
:102390002041C00B0D1A0C01001C0022002200225B
:1023A000002400380031E0D8808C808C808700C702
:1023B000803CE0020606050108C040404040400461
:1023C00012120601FD306040408080808080808055
:1023D000808080C04060300412120601FDC0602081
:1023E00030101010101010101010102020608007F6
:1023F00007070801071094DE30FC92100707070852
:102400000002101010FE1010100205050401FD401E
:10241000C0404080050101060104F80203030401E5
:10242000FFC0C0800812120900FD0101030206046A
:10243000040C080818103020206040C0070B0B095E
:1024400001003844828282828282844438060C0CE5
:102450000901001070901010101010101010FC06E0
:102460000C0C0801003C44C40404081010204484EF
:10247000FC070C0C0800001C266202041C0202026D
:1024800002867C070C0C090100040C0C1414244473
:1024900044FE04041E060B0B0902007C40404078F9
:1024A000840404048478070C0C0901000C304040BB
:1024B00080FCC68282824438070B0B090100FE8231
:1024C000040408081810302060070C0C090100787B
:1024D000C4C4C4E83C4E828282C27C070B0B090153
:1024E000003844828282C67A02040870020A0A0412
:1024F00001FF80C08000000000C0C080020C0C04FE
:1025000001FD80C0800000000040C0404080070600
:1025100006080102061CE0C038060704040801038F
:10252000FE0000FE070606080102C0700E1C708047
:10253000060F0F0801FF384484840408101020207F
:1025400020003030200E0F1E1001FD07E018302053
:102550000847C888449044904490449044904888E8
:10256000C84770200818300FC00B0C180B0000046F
:102570000006000E000A000B00110011001F802150
:1025800080208020C0F1E0080C0C0A0100FC4242CF
:1025900042447E4341414143FE080C0C0A01001EA7
:1025A0006380808080808080C0633C090C180B01B0
:1025B00000FC00430041004080408040804080405B
:1025C00080408041004200FC00080C0C090100FE24
:1025D000424040407C4840404243FE070C0C090109
:1025E00000FE424040407C4840404040F00A0C1809
:1025F0000B01000F003180400080008000800083CC
:10260000C080808080408060801F000A0C180C0110
:1026100000E1C040804080408040807F804080401A
:1026200080408040804080E1C0030C0C060100E047
:1026300040404040404040404040E0060F0F06FF11
:10264000FD3C08080808080808080808080890E081
:102650000A0C180B0100E7804200440048005000BB
:102660006000500058004C0046004300E1C0070CD9
:102670000C090100E040404040404040404242FEE2
:102680000E0C180F0100E038603070705050505040
:10269000589048904D10451047104210E27C0A0CAB
:1026A000180C0100C1C060807080508058804C8040
:1026B00044804680438041804180E080090C180BB3
:1026C00001001E0063008100808080808080808007
:1026D00080808080410062003C00080C0C0A0100F0
:1026E000FC42414141425C40404040F00B0F1E0B18
:1026F00001FD1E00630081008080808080808080DA
:1027000080808080410062003C000600032000C001
:102710000A0C180B0100FC0043004100410041007D
:1027200042007C004C00460043004300E1C0070C1F
:102730000C0901003CC68080E0380C020282C4F81B
:10274000090C180A0100FF808880888008000800B2
:102750000800080008000800080008003E000A0CF5
:10276000180C0100E1C040804080408040804080E3
:10277000408040804080408021001E000C0C180CDE
:102780000000F0F020403040304010801880098078
:1027900009000D00070006000600100C18100000CC
:1027A000F10F21842184218432C4324812681468D4
:1027B0001C281C38083008100B0C180C0000F9E01D
:1027C0002080318019000E00060006000B001980E1
:1027D000308020C0F1E00B0C180B0000E1E03080ED
:1027E000318019000A000E000400040004000400F7
:1027F00004001F00080C0C0A0100FF8286040C185C
:1028000010306041C1FF0412120601FDF08080808B
:1028100080808080808080808080808080F007122F
:10282000120901FD8080C04040202030101018089F
:102830000804040602020412120500FDF010101034
:1028400010101010101010101010101010F00709B8
:10285000090901051018282C2C4446828207010121
:102860000901FEFE04040406000AC06020100709E6
:10287000090901003C4484043CC4848C76090E1C84
:102880000A00004000C000400040004000460059DF
:10289000006080408040804080410061003E000632
:1028A00009090801003C448080808080C478080EBB
:1028B0000E0A010006020202023E428282828282E7
:1028C000463B0709090901003C448282FE808042A0
:1028D0003C060E0E0601001C24404040F8404040DB
:1028E00040404040F00A0D1A0A00FC3EC0430081FF
:1028F000008100C2003C00300078002780C080804A
:1029000080C1003E00080E0E0A010040C040404059
:102910004C52624242424242E7030C0C050100C0A5
:10292000C00040C0404040404040E005101005FE5F
:10293000FC181800081808080808080808080810F3
:10294000E0080E0E0A010040C04040404F4448706D
:1029500070584C46E7030E0E05010040C040404051
:102960004040404040404040E00D09120F0100CC83
:10297000605290631042104210421042104210E721
:10298000380809090A01004CD2624242424242E739
:102990000809090A01003C428181818182423C0888
:1029A0000D0D0A01FCCE724141414142625C404042
:1029B00040F0090D1A0A01FC1D006300810081002E
:1029C0008100810081004700390001000100010001
:1029D00007800609090801005CE46040404040406F
:1029E000F0050909070100708880C030088888F068
:1029F000050C0C070100404040F84040404040407A
:102A000048700809090A0100C64242424242424651
:102A10003B090912090000F3806100210032001215
:102A20000012001C000C0008000D09120D0000F23D
:102A30003863102310251035A014A018E018C01812
:102A4000400909120A0000F380210032001C000C2A
:102A500000160022002100F380090D1A0900FCF382
:102A600080610021003200120014001C000C0008DC
:102A70000008001000B000E000070909080100FE8E
:102A8000840818302062C2FE0512120601FD0810EB
:102A900020202020202040E020202020202020185E
:102AA0000114140402FC80808080808080808080FB
:102AB000808080808080808080800512120600FDEA
:102AC000C02020202020202038102020202020205E
:102AD000408009040809000430007D804F00860012
:102AE000FFFFFFFFFFFFFFFFFFFFFFFFFFFFFFFFF6
:102AF000FFFFFFFFFFFFFFFFFFFFFFFFFFFFFFFFE6
:102B0000FF000000040000020E0E0502FB40C04062
:102B10008080808080808080808080070C0C09010C
:102B20000010103ED490909090D27C1010070C0CA6
:102B30000901003C4644404040F040404242FE070C
:102B40000606090103847E444444FE090B1609006D
:102B500000E7806300320014001C0008007F0008BA
:102B600000080008003E000114140402FC8080806C
:102B70008080808080800000808080808080808055
:102B800080070D0D090100709880E0B88682623CD4
:102B90000C84C47805020207010A88880C0C180E00
:102BA00001000F0030C05E209220A010A010A010E5
:102BB000A01090A04F2020401F80050707050005AA
:102BC00030D070D0B048F007080809010022244C2A
:102BD000D8D84C2422080404090002FF0101010591
:102BE0000101060104F807060607000738EEAAB23D
:102BF000EE3806010109020BFC0505050701077007
:102C000088888870070909080001101010FE10104C
:102C100010007E040707060106709010204090F017
:102C200005080806000538480810080888700404DC
:102C30000406020A30604080080D0D0A01FCC246FD
:102C400042424242667E5B40404060080E0E0A01EE
:102C5000FE3F46868686463E0606060606060F01A7
:102C6000020203010580800204040402FCC0C0408B
:102C70008005070706010620E020202020F8040731
:102C800007050005609090909060F0070808090122
:102C90000088482432322448880A0B160B0100C0F1
:102CA000804100410042004400E40009801280128B
:102CB0008027C041C0090B160B0100C080410042B3
:102CC0000042004400EF800C801100310022804758
:102CD000800A0C180B010060009080210012009205
:102CE00000E400080009801280328027C041C0063D
:102CF0000E0E0801FB1030101010102020408084B0
:102D00008488700B10200B000010003C00020000B3
:102D100000040006000E000A000B00110011001F45
:102D2000802180208020C0F1E00B10200B000001EA
:102D300000078008000000040006000E000A000BD7
:102D400000110011001F802180208020C0F1E00BC5
:102D500010200B000004000A00110000000400060F
:102D6000000E000A000B00110011001F80218020BE
:102D70008020C0F1E00B0F1E0B00001D802700001B
:102D800000040006000E000A000B00110011001FD5
:102D9000802180208020C0F1E00B0F1E0B0000215D
:102DA0000021000000040006000E000A000B0011C4
:102DB0000011001F802180208020C0F1E00B112233
:102DC0000B00000E00120012000C000000040006B0
:102DD000000E000A000B00110011001F802180204E
:102DE0008020C0F1E00E0C180F00001FF805080548
:102DF00000090009001FF0112011002100210861C5
:102E00000CF3F80910200A01FC1E0063008000800A
:102E10000080008000800080008000410061803ED2
:102E20000008000C00040008000810100901004010
:102E3000300800FE424040407C4840404243FE088B
:102E40001010090100040E3000FE424040407C4852
:102E500040404243FE081010090100182C4402FEB5
:102E6000424040407C4840404243FE080F0F090169
:102E700000848400FE424040407C4840404243FE83
:102E80000410100600008060100070202020202018
:102E90002020202020700510100601001830C000EE
:102EA000E040404040404040404040E006101006B6
:102EB0000000305884007020202020202020202076
:102EC0002070060F0F06000084880070202020204C
:102ED000202020202020700A0C180B00007E0021EA
:102EE000802080204020407C40A040204020402086
:102EF0008021007E000A0F1E0C0100190026000030
:102F000000C1C060807080508058804C80448046F2
:102F100080438041804180E0800910200B01002027
:102F2000001800040000001E006300810080808003
:102F3000808080808080808080410062003C000929
:102F400010200B010003000600180000001E0063A3
:102F500000810080808080808080808080808041AF
:102F60000062003C000910200B01000C001600223A
:102F70000001001E006300810080808080808080CE
:102F80008080808080410062003C00090F1E0B01A0
:102F90000019006E0000001E006300810080808028
:102FA000808080808080808080410062003C0009B9
:102FB0000F1E0B01004200420000001E0063008152
:102FC000008080808080808080808080804100625E
:102FD000003C000606060801028448303048840997
:102FE0000C180B01001E802300430083808480881E
:102FF0008088809080E10061006200BC000A10209F
:103000000C01003000180006000000E1C0408040C4
:1030100080408040804080408040804080408021CF
:10302000001E000A10200C0100010006000800002C
:1030300000E1C0408040804080408040804080402F
:10304000804080408021001E000A10200C01000CEE
:10305000001A0021000000E1C04080408040804014
:10306000804080408040804080408021001E000AD7
:103070000F1E0C0100210021000000E1C040804033
:10308000804080408040804080408040804080215F
:10309000001E000B10200B0000010003800C00003C
:1030A00000E1E03080318019000A000E00040004C5
:1030B000000400040004001F00080C0C0A0100F0CA
:1030C000407C4241414141625C40F0090E1C0B01D1
:1030D000001E002300410041004100460048004816
:1030E0000046004380408048804880CF00070E0E95
:1030F00009010060201010083C4484043CC4848C06
:1031000076070E0E0901000C081010003C448404E0
:103110003CC4848C76070E0E09010010384C8400E4
:103120003C4484043CC4848C76070D0D09010022C4
:103130007498003C4484043CC4848C76070C0C09CD
:1031400001008484003C4484043CC4848C76070ED3
:103150000E09010038484830003C4484043CC484D3
:103160008C760B09120D010039C04640C4200420A2
:103170001FE0640084008E2073C0070D0D0801FC61
:103180003C448080808080623C10180810070E0E3E
:1031900009010060201008003C448282FE808042C9
:1031A0003C070E0E090100040E0810003C44828208
:1031B000FE8080423C070E0E0901001838244200B0
:1031C0003C448282FE8080423C070C0C0901008254
:1031D00084003C448282FE8080423C040E0E050046
:1031E00000C04020100020602020202020207004FB
:1031F0000E0E050100103060400040C040404040CD
:103200004040E0060E0E0500002070C884002060DB
:1032100020202020202070060C0C05FF0084840054
:10322000103010101010101038070D0D090100603B
:103230001E38443C4682828282844438080D0D0A3E
:103240000100333A4C004CD2624242424242E7080B
:103250000E0E0A010060301008003C42818181811D
:1032600082423C080E0E0A0100060C0810003C4287
:103270008181818182423C080E0E0A0100183824A7
:1032800042003C428181818182423C080D0D0A014D
:1032900000327A4C003C428181818182423C080CA0
:1032A0000C0A01008282003C428181818182423C81
:1032B0000606060801022020FC0020200809090A51
:1032C00001001D6687899991E262FC080E0E0A01D1
:1032D000006030100800C6424242424242463B086B
:1032E0000E0E0A0100060C081000C642424242427D
:1032F00042463B080E0E0A0100181C244200C6423A
:103300004242424242463B080C0C0A0100828200C3
:10331000C6424242424242463B0912240900FC0393
:10332000000600040008000000F380610021003264
:1033300000120014001C000C00080008001000B06F
:1033400000E0000812120A01FC40C04040404E72EA
:103350004141414142627C404040F0091020090057
:10336000FC410041000000F38061002100320012A6
:103370000014001C000C00080008001000B000E061
:10338000000000000000000000000000007FFFE0DF
:103390000000000000000000000000007000E000DD
:1033A0000000000000000000000000630C6000004E
:1033B00000000000000000000000470E2000000098
:1033C0000000000000000000004F0F20000000007F
:1033D00000000000000000005F0FA00000000000DF
:1033E000000000000000005E07A07F8000000000D9
:1033F000000000410400406020FFC0000000000009
:10340000000020820040F020FFC00000000000000B
:103410000020820040F020FFC000000000000000FB
:103420004104004060207F80000000000000008216
:1034300008005E07A07F800000000000000104106B
:10344000005F0FA0FFC0000000000000010410009A
:103450004F0F20FFC000000000000000820800475E
:103460000E20FFC000000000000000410400630CBB
:10347000603F00000000000000000000007000E05D
:103480001E0000000000000001FFFF807FFFE00C35
:103490000000000000000001FFFF800000000000AD
:1034A000000000000000000000007FFFE0000000BE
:1034B0000000000000000000007000E000000000BC
:1034C000000000000000000061F860000000000043
:1034D0000000000000000041F82000000000000093
:1034E00000000000000040F020000000000000008C
:1034F000000000000040602000000000000000000C
:10350000000000005801A07F8000000000000000C3
:103510004104005C63A0FFC0000000000000002028
:1035200082005EF7A0FFC0000000000000002082C3
:10353000005EF7A0FFC00000000000000041040092
:103540005C63A07F8000000000000000820800583B
:1035500001A07F8000000000000001041000406016
:1035600020FFC00000000000000104100040F02017
:10357000FFC00000000000000082080041F820FFAA
:10358000C00000000000000041040061F8603F003E
:10359000000000000000000000007000E01E0000BD
:1035A000000000000001FFFF807FFFE00C00000032
:1035B0000000000001FFFF8000000059002D2D3A9F
:1035C0002D2D00B02000B020004D323100496E6931
:1035D00063696172207461726A2E205344004E6FD9
:1035E00020686179207461726A65746120534400B7
:1035F0004D3231005265636172676172207461728D
:103600006A2E205344005461726A657461205344E9
:1036100000446574656E657220696D7072657369CA
:103620006F6E005265616E7564617220696D7072B3
:1036300065732E0050617573617220696D707265DB
:1036400073696F6E00436F6E74726F6C00507265B9
:10365000706172617200416A7573746172004D6FBE
:103660006E69746F72697A6172005461726A65740E
:1036700061205344005461726A65746120534400B0
:10368000F92E2E004D656E75207072696E6369703B
:10369000616C004D3234004D3233202573004D38BB
:1036A0003420582059205A204500436F6E74722EE2
:1036B000206176616E7A61646F7300416A7573741C
:1036C0006172205A2D6F6666736574004C6C657666
:1036D000617220616C206F726967656E004D6F7654
:1036E0002E206D616E75616C20656A65730054658E
:1036F0006D702E43616D610054656D702E43616D78
:10370000610054656D702E457874722E0054656D9D
:10371000702E457874722E004D656E75207072693A
:103720006E636970616C00436F6E74726F6C657369
:103730002054656D702E00526573742E20646520D0
:10374000656D657267656E636961004C65657220C1
:10375000454550524F4D004573637269626972204E
:10376000454550524F4D004D6F6469662E2076617D
:103770006C6F72657300436F6E74726F6C00416A98
:1037800075737461722074656D702E204142530010
:10379000416A75737461722074656D702E20504C8F
:1037A000410056656E74696C61646F720056656E97
:1037B00074696C61646F7200426173650042617389
:1037C00065004E6F7A7A6C65004E6F7A7A6C650090
:1037D000436F6E74726F6C004573637269626972D5
:1037E00020454550524F4D00426173650042617360
:1037F00065004E6F7A7A6C65004E6F7A7A6C650060
:1038000056656E74696C61646F720056656E74699A
:103810006C61646F720054656D706572617475726D
:103820006100457363726962697220454550524F69
:103830004D00426173650042617365004E6F7A7A94
:103840006C65004E6F7A7A6C650056656E74696CB3
:1038500061646F720056656E74696C61646F7200AA
:1038600054656D7065726174757261004520706198
:10387000736F732F6D6D0045207061736F732F6DC3
:103880006D005A207061736F732F6D6D005A207038
:1038900061736F732F6D6D0059207061736F732F9B
:1038A0006D6D0059207061736F732F6D6D0058201E
:1038B0007061736F732F6D6D0058207061736F733B
:1038C0002F6D6D00412D7265747261632E00412D64
:1038D0007265747261632E00416D61786500416D9F
:1038E00061786500416D61787A00416D61787A0098
:1038F000416D61787900416D61787900416D617841
:103900007800416D6178780056766163696F206D4B
:10391000696E0056766163696F206D696E00566D41
:10392000696E00566D696E00566D61786500566D62
:1039300061786500566D61787A00566D61787A001D
:10394000566D61787900566D61787900566D6178B1
:103950007800566D6178780056652D6A65726B0047
:1039600056652D6A65726B00567A2D6A65726B001A
:10397000567A2D6A65726B005678792D6A65726B7E
:10398000005678792D6A65726B004163656C004161
:1039900063656C00436F6E74722E206176616E7A7F
:1039A00061646F7300477561726461722076616C47
:1039B0006F72005A2D6F6666736574005A2D6F66BC
:1039C0006673657400436F6E74726F6C00473238B3
:1039D000205A00486F6D696E67205A0047323820C0
:1039E0005900486F6D696E6720590047323820587A
:1039F00000486F6D696E6720580047323800486F85
:103A00006D696E6720582C592C5A00507265706190
:103A1000726172004D6F76657220302E316D6D00CF
:103A20004D6F76657220316D6D004D6F7665722039
:103A300031306D6D00436F6E74726F6C0045787439
:103A40007275736F72004D6F766572205A004D6FFC
:103A50007665722059004D6F7665722058004D6F63
:103A6000762E206D616E75616C20656A6573004508
:103A700078747275736F72005A00590058004D388F
:103A80003400417061676172206D6F746F7265738D
:103A900000496E7365727461722066696C616D2E87
:103AA00000526574697261722066696C616D2E00E6
:103AB000456E66726961720050726563616C656E15
:103AC000746172004D656E75207072696E63697005
:103AD000616C0047393220453000473120452B3595
:103AE00030204631323030004739322045300047EF
:103AF000393220453000473120452D3130302046C5
:103B000031323030004739322045300050564120A4
:103B100044494D410046696C2E206D6164657261B7
:103B20002044494D410046696C2E20666C657869D9
:103B3000626C652044494D4100504C412044494D40
:103B40004100507265706172617200466C756A6FF7
:103B500000466C756A6F004261736500426173656F
:103B60000056656C6F63696461640056656C6F63D1
:103B700069646164004D656E75207072696E636979
:103B800070616C005461726A6574612053442072E4
:103B900065746972616461005461726A6574612060
:103BA000534420696E74726F6475636964610000C8
:103BB0001F00000000000000003FFFFA0000001F8F
:103BC00000000000000000003FFFFFF000001F00A9
:103BD000000000000000003FFFFDFF00000F80001C
:103BE0000000000000003FFFFFFFC0000F8000004A
:103BF00000000000003FFFFFFF20000F87E00000F3
:103C0000000000003FFFFEFF201FFFC3E0FFFFE0BA
:103C10003FFFE01F00FEFFB03FFFC3E0FFFFF03FAC
:103C2000FFF01F007FC7907FFFC3F07FFFF81FFFEB
:103C3000F800007F40107FFFE1F07FFFFC1FFFFCDA
:103C4000001FFF6018FFFFE1F07C7CFC0000FC001F
:103C50001FFFE708FE03E0003E3E7E00007C000FF1
:103C6000FFE7C8FC01F0003E3E3E00007E000FFF73
:103C7000A7C87C01F0F83E3E3E03FFFE000FFFF3B5
:103C8000EC7C01F0FC3F1F3F07FFFE000FFFF3E459
:103C90007C00F07C1F1F1F07FFFF00001FD3E43EC6
:103CA00000F87C1F1F1F0FFFFF00001FD9E63E001A
:103CB000F87C1F9F9F8FE01F03E00FF9F21F007831
:103CC0003E0F8F8F87C01F83F00FE9F21F807C3E6D
:103CD0000F8F8F87E00F81FFFFEDF30FFFFC3F0F8A
:103CE000CFCFC7FFFF81FFFFFC3907FFFC3F07C7AE
:103CF000C7C3FFFFC1FFFFF40103FFFE1F07C7C7D4
:103D0000C1FFFFC0FFFFFC0101FFFE1F07E7C7E087
:103D10007FFFC07FFFEC01007FFE1F83E3E7E01F12
:103D2000FFE01FFFD80100000000000000000000BD
:103D30000001FFCF010000000000000000000000B3
:103D4000001FFCF600000000000000000000000062
:103D50000000004D33303020533639382050323097
:103D600030004D333030205336353920503230302A
:103D70000000060900FE06018902FE20FFFE07FE84
:103D800006FE00000006000701060606020080800D
:103D900080800080030303060103A0A0A00507079D
:103DA0000600FF5050F850F850500509090600FE73
:103DB0002070A8A07028A870200608080600FF4000
:103DC000A84810204854080507070600FF60909097
:103DD0006098906801030306020380808002070751
:103DE0000602FF408080808080400207070602FFB5
:103DF000804040404040800505050600008850F89E
:103E000050880505050600002020F8202002040443
:103E10000602FEC0404080050101060002F80202D1
:103E200002060200C0C00406060601001010204071
:103E30008080040606060100609090909060030662
:103E40000606010040C0404040E0040606060100AE
:103E50006090102040F0040606060100F02060107B
:103E600010E005060606000010305090F810040619
:103E700006060100F080E01010E0040606060100CE
:103E80006080E0909060040606060100F0101020AB
:103E900040400406060601006090609090600406B1
:103EA0000606010060909070106002050506020091
:103EB000C0C000C0C00207070602FEC0C000C0406C
:103EC00040800505050600001860806018050303A2
:103ED000060001F800F8050505060000C0300830AE
:103EE000C00407070601006090106040004005060E
:103EF000060600007090A8B0807005060606000057
:103F0000205088F88888050606060000F088F088AA
:103F100088F0040606060100609080809060040628
:103F200006060100E090909090E00406060601006D
:103F3000F080E08080F0040606060100F080E0805A
:103F40008080040606060100609080B09060040640
:103F5000060601009090F09090900306060601007E
:103F6000E040404040E00506060600003810101012
:103F7000906004060606010090A0C0A09090040680
:103F8000060601008080808080F00506060600009D
:103F900088D8A8A8888804060606010090D0B090AA
:103FA00090900506060600007088888888700406D0
:103FB00006060100E09090E080800407070601FFFC
:103FC000609090D0B06010040606060100E090906A
:103FD000E090900406060601006090402090600585
:103FE0000606060000F82020202020040606060110
:103FF00000909090909060040606060100909090CA
:10400000F060600506060600008888A8A8D8880524
:104010000606060000885020205088050606060087
:1040200000888850202020040606060100F0102099
:104030004080F0030606060100E080808080E004F6
:1040400006060601008080402010100306060601C7
:1040500000E020202020E005030306000320508814
:104060000501010600FEF802020206020480400477
:10407000040406010070909070040606060100809A
:1040800080E09090E00404040601007080807004D9
:1040900006060601001010709090700404040601DA
:1040A0000060B0C070040606060100205040E040E9
:1040B000400406060601FE6090907010600406063B
:1040C0000601008080E09090900306060601004003
:1040D00000C04040E00308080601FE2000602020E8
:1040E00020A0400406060601008080A0C0A0900326
:1040F0000606060100C040404040E00504040600FA
:1041000000D0A8A888040404060100E09090900460
:104110000404060100609090600406060601FEE0BB
:104120009090E080800406060601FE70909070106A
:1041300010040404060100A0D080800404040601D9
:104140000070C030E00406060601004040E0405028
:1041500020040404060100909090700404040601F9
:10416000009090606005040406000088A8A8500430
:104170000404060100906060900406060601FE90AB
:104180009090709060040404060100F02040F00359
:104190000707060100204040804040200107070635
:1041A00002FF8080808080808003070706010080F6
:1041B00040402040408004020206010350A0FFFF5F
:1041C000FFFFFFFFFFFFFFFFFFFFFFFFFFFFFFFFFF
:1041D000FFFFFFFFFFFFFFFFFFFFFFFFFFFFFF00EE
:1041E00000000600070106060602008000808080AD
:1041F000800406060601FF2070A0A07020050707B6
:104200000600FF304840F04040F805050506000074
:10421000A8508850A80506060600008850F820F827
:10422000200107070602FF8080800080808004074D
:10423000070601FF708060906010E0030101060135
:1042400005A0060707060000788494A494847803E8
:10425000050506010160A06000E0050505060000F7
:104260002850A05028040303060100F01010040198
:1042700001060102F00607070600007884B4A4A432
:104280008478040101060105F004030306010260BD
:1042900090600507070600FF2020F8202000F803A3
:1042A000050506010140A02040E0030505060101C7
:1042B000C0204020C002020206020440800405051E
:1042C0000601FF9090B0D08005060606000078E851
:1042D000E8682828010101060202800202020602A3
:1042E000FE408003050506010140C04040E0030593
:1042F0000506010140A04000E0050505060000A0FC
:10430000502850A00508080600FF40C040507030FB
:1043100078100508080600FF40C0405068081038B3
:104320000508080600FFC0204030F0307810040770
:104330000706010020002060809060050707060046
:1043400000402020507088880507070600001020D4
:104350002050708888050707060000205020507004
:1043600088880507070600002850205070888805B7
:1043700007070600005000205070888805070706D0
:10438000000020502050708888050606060000783E
:10439000A0F0A0A0B80408080601FE6090808090FC
:1043A0006020400407070601004020F080E080F014
:1043B0000407070601002040F080E080F0040707B2
:1043C0000601002050F080E080F00407070601009D
:1043D0005000F080E080F00307070601008040E015
:1043E000404040E00307070601002040E040404015
:1043F000E003070706010040A0E0404040E003075B
:1044000007060100A000E0404040E0050606060067
:10441000007048E848487004070706010050A09063
:10442000D0B0909004070706010040206090909063
:104430006004070706010020406090909060040728
:104440000706010020506090909060040707060165
:104450000050A06090909060040707060100500093
:1044600060909090600505050600008850205088F7
:104470000408080601FF1070B0B0D0D0E080040737
:104480000706010040209090909060040707060105
:104490000020409090909060040707060100205093
:1044A0009090909060040707060100500090909053
:1044B0009060050707060000102088502020200487
:1044C000060606010080E09090E0800406060601E2
:1044D000006090A0A090A004070706010040200003
:1044E00070909070040707060100204000709090C3
:1044F00070040707060100205000709090700407B8
:104500000706010050A00070909070040606060196
:1045100000500070909070040707060100205020A2
:104520007090907005040406000070A8B07804062E
:10453000060601FE70808070204004070706010017
:1045400040200060B0C07004070706010020400052
:1045500060B0C07004070706010020500060B0C0C2
:1045600070040606060100500060B0C07003070723
:10457000060100804000C04040E00307070601003C
:10458000204000C04040E003070706010040A000B3
:10459000C04040E0030606060100A000C04040E025
:1045A0000407070601003060107090906004070750
:1045B00006010050A000E09090900407070601005B
:1045C0004020006090906004070706010020400032
:1045D00060909060040707060100205000609090F2
:1045E0006004070706010050A00060909060040678
:1045F0000606010050006090906005050506000069
:104600002000F8002004040406010070B0D0E0048B
:1046100007070601004020009090907004070706ED
:1046200001002040009090907004070706010020D0
:104630005000909090700406060601005000909083
:1046400090700409090601FE20400090909070903F
:10465000600408080601FE8080E09090E0808004FD
:1046600008080601FE5000909090709060000609C6
:1046700000FE070199032B20FFFE08FE07FE000045
:10468000000600000107070602008080808080008D
:1046900080030303060104A0A0A00507070600008D
:1046A0005050F850F850500507070600002070A041
:1046B0007028702005070706000048A8502050A861
:1046C0009005070706000040A0A040A890680103DD
:1046D0000306020480808003070706010020408053
:1046E00080804020030707060100804020202040F2
:1046F000800505050600018850F850880505050667
:1047000000012020F820200303030601FF60408001
:10471000050101060003F80303030601FF40E04022
:1047200005070706000008081020408080050707DD
:1047300006000020508888885020050707060000E2
:104740002060A0202020F8050707060000708808D8
:10475000304080F8050707060000F8081030088888
:104760007005070706000010305090F8101005077C
:1047700007060000F880B0C8088870050707060023
:1047800000304080B0C88870050707060000F808B0
:1047900010102040400507070600007088887088C8
:1047A0008870050707060000708898680810600385
:1047B00007070601FF40E0400040E040030707060E
:1047C00001FF40E040006040800407070601001040
:1047D000204080402010050303060002F800F80482
:1047E00007070601008040201020408005070706CB
:1047F00000007088102020002005070706000070C8
:104800008898A8B0807005070706000020508888A7
:10481000F88888050707060000F04848704848F007
:1048200005070706000070888080808870050707EC
:10483000060000F04848484848F005070706000011
:10484000F88080F08080F8050707060000F8808077
:10485000F0808080050707060000708880809888B7
:1048600070050707060000888888F888888803078D
:1048700007060100E04040404040E0050707060011
:10488000003810101010906005070706000088908F
:10489000A0C0A09088050707060000808080808067
:1048A00080F80507070600008888D8A8888888054A
:1048B00007070600008888C8A898888805070706A3
:1048C000000070888888888870050707060000F057
:1048D0008888F08080800508080600FF7088888836
:1048E00088A87008050707060000F08888F0A090E7
:1048F0008805070706000070888070088870050723
:1049000007060000F82020202020200507070600C9
:1049100000888888888888700507070600008888CE
:104920008850505020050707060000888888A8A8EE
:10493000D888050707060000888850205088880519
:10494000070706000088885020202020050707065A
:104950000000F80810204080F8030707060100E077
:104960008080808080E0050707060000808040206E
:10497000100808030707060100E02020202020E09F
:104980000503030600042050880501010600FFF816
:1049900002020206020680400505050600007008B6
:1049A0007888780507070600008080B0C888C8B0FE
:1049B0000505050600007088808870050707060059
:1049C0000008086898889868050505060000708842
:1049D000F88070050707060000304840F04040406E
:1049E0000507070600FE788888780888700507079D
:1049F0000600008080B0C888888803070706010089
:104A00004000C0404040E00409090601FE100030AB
:104A100010101090906005070706000080808890B5
:104A2000E09088030707060100C04040404040E096
:104A3000050505060000D0A8A8A8880505050600FC
:104A400000B0C88888880505050600007088888839
:104A5000700507070600FEB0C888C8B0808005074B
:104A6000070600FE6898889868080805050506008E
:104A700000B0C880808005050506000070807008C1
:104A8000F00507070600004040F0404048300505AB
:104A900005060000888888986805050506000088D6
:104AA000885050200505050600008888A8A85005F4
:104AB000050506000088502050880507070600FEFF
:104AC00088889868088870050505060000F8102099
:104AD00040F8040707060100304020C020403001A4
:104AE0000707060200808080808080800407070618
:104AF0000100C02040304020C005030306000448E8
:104B0000A89000000001000000000001000000006B
:104B10000001000000000001000000000001000092
:104B20000000000100000000000100000000000182
:104B30000000000000010000000000010000000073
:104B40000001000000000001000000000001000062
:104B50000000000100000000000100000000000152
:104B60000000000000010000000000010000000043
:104B70000001000000000001000000000001000032
:104B80000000000100000000000100000000000122
:104B90000000000000010000000000010000000013
:104BA0000001000000000001000000000001000002
:104BB00000000001000000000001000000000001F2
:104BC00000000000000100000000000600000107D6
:104BD00007060200800080808080800507070600AD
:104BE000FF2078A0A0A07820050707060000304825
:104BF00040E04048B0050505060000887050708808
:104C00000508080600FF88885020F82020200107AA
:104C1000070602008080800080808005080806006A
:104C2000FF7080E09048380870030101060107A07A
:104C30000507070600007088A8C8A8887004060643
:104C40000601017090B05000F00605050600002432
:104C500048904824040202060102F01004010106F3
:104C60000103F00507070600007088E8C8C88870CF
:104C7000050101060007F803030306010440A040F4
:104C80000506060600002020F82020F80405050689
:104C9000010360902040F0040505060103E0106068
:104CA00010E002020206020640800506060600FF2A
:104CB000888888C8B08005070706000078E8E8689B
:104CC000282828010101060203800202020602FED2
:104CD000408003050506010340C04040E00406068D
:104CE0000601016090906000F00605050600009046
:104CF000482448900609090600FF40C04040E40CE3
:104D0000143C040609090600FF40C04040E81404B2
:104D1000081C0509090600FFC0204020C818287893
:104D200008050707060000200020204088700508BD
:104D3000080600004020708888F888880508080662
:104D400000001020708888F8888805080806000090
:104D50002050708888F8888805080806000048B048
:104D6000708888F888880508080600005000708858
:104D700088F888880508080600002050708888F8A0
:104D800088880607070600003C50909CF0909C0520
:104D900009090600FE708880808088702040050820
:104DA0000806000040F88080F08080F805080806BA
:104DB000000010F88080F08080F8050808060000E8
:104DC00020F88080F08080F805080806000050F880
:104DD0008080F08080F80308080601008040E040F1
:104DE000404040E00308080601002040E040404009
:104DF00040E003080806010040A0E040404040E0D9
:104E0000030808060100A000E040404040E005071C
:104E100007060000F04848E84848F0050808060082
:104E200000285088C8A8988888050808060000400F
:104E30002070888888887005080806000010207097
:104E400088888888700508080600002050708888C7
:104E500088887005080806000028507088888888AF
:104E60007005080806000050007088888888700562
:104E70000505060000885020508805070706000039
:104E8000709898A8C8C870050808060000402088D7
:104E9000888888887005080806000010208888889F
:104EA00088887005080806000020500088888888D7
:104EB00070050808060000500088888888887005FA
:104EC00008080600001020888850202020050707C9
:104ED00006000080F088F08080800507070600004B
:104EE000708890A09088B005080806000040200057
:104EF00070087888780508080600001020007008FF
:104F00007888780508080600002050007008788826
:104F10007805080806000028500070087888780591
:104F20000707060000500070087888780508080612
:104F300000002050207008788878060505060000DB
:104F400078147C907C0507070600FE7088808870C6
:104F500020400508080600004020007088F8807096
:104F60000508080600001020007088F88070050809
:104F7000080600002050007088F8807005070706BA
:104F8000000050007088F880700308080601008057
:104F90004000C0404040E003080806010040800097
:104FA000C0404040E003080806010040A000C040A7
:104FB0004040E0060A0A0600FEA4A800FC848080A7
:104FC0008084FC060A0A0600FE549400FC84040453
:104FD0000484FC050808060000285000B0C8888832
:104FE0008805080806000040200070888888700442
:104FF0000A0A0602FE3040809090909090909004B3
:105000000A0A0600FEC020109090909090909006A2
:105010000707060001448C8C8480403C0607070685
:10502000000188C4C4840408F005050506000120B9
:1050300000F8002005080806000040F0C88888989D
:105040007810050808060000E0F88888888888F845
:105050000505050600012030F83020050808060087
:10506000002070F820202020E00509090600FF201C
:1050700070A8A8B8888850200509090600FFE080BC
:10508000C0B0A8A83028280509090600FFF8A8889C
:1050900088888888A8F8050A0A0600FE2050505023
:1050A0005088A8A8887000002100240027002A004A
:1050B0002D003000330001010000040107010A0146
:1050C00000002200250028002B002E0031003400B3
:1050D00002010000050108010B010000200023006F
:1050E000260029002C002F003200000100000301DF
:1050F000060109010505050507050808080802025B
:1051000002020A0A08080404040401010101010161
:1051100001010303030303030303040707070C0C44
:105120000C0C0C0C0C0C020202020606060606060B
:1051300006060B0B0B0B0B0B0B0B010210202008B0
:1051400008102040102040800201020108040201E2
:105150000102040810204080804020100804020151
:1051600080040201804020100804020108040201AA
:105170000102040810204080010204081020408031
:105180000000090A02080B0C0D07060304010000C9
:10519000000000000000000000000000000000000F
:1051A00000000000000000000000000011100F00CF
:1051B00000000000000000000000000000000000EF
:1051C000000000000000494E46494E4954594E41E6
:1051D0004ECDCCCC3D0AD7233C17B7D13877CC2B5A
:1051E000329595E6241FB14F0A000020410000C807
:1051F0004200401C4620BCBE4CCA1B0E5AAEC59D88
:105200007400DE442B6AEADED74411241FBECFEFC0
:10521000D1E2DEBFCDBF00E00CBF14E0A0E0B2E001
:10522000E4E7F0EE01E00BBF02C007900D92AE384C
:10523000B107D9F71BBE14E1AEE8B4E001C01D927E
:10524000A935B107E1F712E5C8E0D2E504C022971D
:10525000FE010E94DFEFC230D107C9F70E944EE77E
:105260000C942DF00C940000A0E0B0E0EAE3F9E229
:105270000C94FCEFEC015B016115710519F0FB0169
:1052800091838083F9908F2D90E00E94E3EF892B2A
:10529000C9F7FDE2FF1621F4F990EE24E39405C06E
:1052A0002BE2F21609F4F990EE248E010150104021
:1052B000C80166EC71E543E050E00E94D32B892BD6
:1052C00001F58E010E5F1F4FC80169EC71E545E0E5
:1052D00050E00E94D32B892B19F48E01095F1F4FD8
:1052E000A114B10419F0F50111830083E0FC04C09E
:1052F00070E090E080E814C070E090E080E86FEF2C
:1053000008C1C8016EEC71E543E050E00E94D32B68
:10531000892B69F4A114B10429F470E090E080ECC9
:105320006FE7F7C02296F501D183C083F6CF8824BA
:10533000992440E050E060E070E0EF2DE053EA3067
:10534000A0F5F2E0EF2A8E2D90E09C0128703070DD
:10535000E2FE06C0232B79F50894811C911C2BC01A
:10536000232B19F0089481089108DB01CA0112E08F
:10537000880F991FAA1FBB1F1A95D1F7480F591FF5
:105380006A1F7B1F440F551F661F771F4E0F511D4D
:10539000611D711D483929E9520729E9620729E190
:1053A000720748F084E0E82A06C0EE3F31F4E3FCDF
:1053B00039C098E0E92AF990C0CFE53311F0E53122
:1053C00089F529912D3219F4E0E1EE2A05C02B323E
:1053D00019F081E090E003C0299182E090E0E22F93
:1053E000E053EA3018F0C81BD90B1CC020E030E0B5
:1053F000FCE020383F075CF4C901880F991F880F33
:10540000991F280F391F220F331F2E0F311DE991CD
:10541000E053EA3068F3E4FE03C0309521953F4F36
:10542000820E931ECE2CDD24E1FE07C0A114B10430
:1054300021F02197F501D183C083CB01BA010E94ED
:1054400048EC7B018C01F3E0CF22DD2423E0C2167F
:10545000D10421F417FB109517F910955701680135
:10546000C801B70120E030E040E050E00E94A8EB26
:10547000882309F44AC097FE0DC025EEE22E21E5EF
:10548000F22E9094819491089394C0E2D0E000E0D1
:1054900010E012C09DEFE92E91E5F92EF6CFF7014D
:1054A0002591359145915491C601B5010E9488EE30
:1054B0005B016C018C1A9D0A8C169D0684F7D595AC
:1054C000C7950F5F1F4F0630110529F08CEF9FEF36
:1054D000E80EF91EF1CFC501D6017C018D018C2D9E
:1054E000880F8D2D881F8F3F51F0C601B50120E038
:1054F00030E040E050E00E94A8EB882331F482E2E3
:1055000090E090935814809357147E2D9F2D802FF8
:10551000612F272F392F482F562FB901CA01CDB738
:10552000DEB7ECE00C9418F02F923F925F926F92EE
:105530007F928F929F92AF92BF92CF92DF92EF9223
:10554000FF920F931F93CF93DF938C011B01EA010E
:105550006115710519F0FB0191838083209749F053
:10556000CE010297839728F020E030E040E050E041
:10557000F6C0F801A1908F018A2D90E00E94E3EF20
:10558000892BB9F7FDE2AF1631F4F801A1908F0134
:105590005524539407C0FBE2AF1619F4F801A1900B
:1055A0008F015524209719F0C031D105C1F4F0E3E3
:1055B000AF1679F4F8018081883711F0883549F405
:1055C000F801A1800E5F1F4FF2E05F2AC0E1D0E03A
:1055D00006C0209721F480E3A816E9F427C0C8305C
:1055E000D10531F1C930D10524F4C230D10531F5EE
:1055F0000CC0CA30D10589F0C031D105F9F4C12CF5
:10560000D12CE12CB8E0FB2E28C0C12CD12CE12CF0
:10561000A0E4FA2E22C0CAE0D0E0FCECCF2EFCECD5
:10562000DF2EFCECEF2EFCE0FF2E17C0C8E0D0E030
:10563000C12CD12CE12CE0E1FE2E0FC09E014427AD
:1056400037FD4095542F60E070E080E090E80E94C4
:10565000A0EFC901DA016C017D0120E030E040E0FB
:1056600050E060E03E01882477FC8094982C70ED37
:10567000B72EBA0CE9E0EB1570F48A2D81548A310B
:1056800018F499ECB92E06C08A2D81568A3150F54E
:1056900089EAB82EBA0C8B2D90E08C179D0714F573
:1056A0006F3FE1F0C216D306E406F506B0F0CA017A
:1056B000B901A40193010E945AEF9B01AC012B0D8B
:1056C000311D411D511D2130F0E03F07F0E04F0733
:1056D000F0E85F0710F461E001C06FEFF801A190FE
:1056E0008F01C5CF2114310481F0662331F00150C0
:1056F0001040F1011183008308C051FE1AC002500E
:105700001040F1011183008314C067FF12C050FCE8
:1057100005C02FEF3FEF4FEF5FE704C020E030E020
:1057200040E050E882E290E0909358148093571440
:1057300016C050FE08C050954095309521953F4FBA
:105740004F4F5F4F0CC057FF0AC082E290E090932A
:105750005814809357142FEF3FEF4FEF5FE7B901D5
:10576000CA01DF91CF911F910F91FF90EF90DF90D1
:10577000CF90BF90AF909F908F907F906F905F90F1
:105780003F902F900895FB01DC0105900D920020C1
:10579000E1F70895FC0105900020E9F780959095C8
:1057A0008E0F9F1F0895FB01DC014150504088F08F
:1057B0008D9181341CF08B350CF4805E65916134E1
:1057C0001CF06B350CF4605E861B611171F3990B54
:1057D0000895881BFCCFFB01DC014150504048F08C
:1057E00005900D920020C9F701C01D924150504014
:1057F000E0F70895FB0155915523A9F0BF01DC01A5
:105800004D9145174111E1F759F4CD010590002064
:1058100049F04D9140154111C9F3FB014111EFCF02
:1058200081E090E001970895FB01DC0104C08D91B7
:105830000190801921F441505040C8F7881B990B02
:105840000895FB01DC0102C001900D9241505040CF
:10585000D8F70895FB01DC018D9181341CF08B3564
:105860000CF4805E619161341CF06B350CF4605E69
:10587000861B611189F3990B0895FB01DC010D90E2
:105880000020E9F7119701900D920020E1F70895AB
:10589000FC018191861721F08823D9F79927089573
:1058A0003197CF010895FB01DC018D9101908019A2
:1058B0000110D9F3990B0895FB01DC0101900D92C1
:1058C0000020E1F70895FB01DC014150504030F029
:1058D0008D910190801919F40020B9F7881B990B5C
:1058E0000895FB01DC014150504048F001900D92B9
:1058F0000020C9F701C01D9241505040E0F70895C3
:10590000AEE0B0E0E6E8FCE20C9404F00E891F89FA
:105910008EE08C831A8309838FEF9FE79E838D83AC
:105920009E01265E3F4FCE010196688D798DA901BB
:105930000E94A42C2F813885020F131FF8011082BA
:105940002E96E4E00C9420F0ABE0B0E0EAEAFCE252
:105950000C94F6EF3C012B015A01FC0117821682D0
:10596000838181FD03C06FEF7FEFC6C19AE0892E6E
:105970001E010894211C311CF3012381F20123FD37
:10598000859123FF81912F01882309F4B2C18532CB
:1059900039F423FD859123FF81912F01853229F46C
:1059A00090E0B3010E94972EE7CF982FFF24EE24BA
:1059B0009924FFE1FF15D0F09B3269F09C3228F466
:1059C000903259F0933291F40EC09D3249F09033E9
:1059D00069F441E024C052E0F52A84E0F82A28C0A6
:1059E00098E0F92A25C0E0E1FE2A22C0F7FC29C090
:1059F000892F80538A3070F4F6FE05C0989C902C55
:105A00001124980E15C0E89CE02C1124E80EF0E259
:105A1000FF2A0EC09E3229F4F6FC6BC140E4F42A42
:105A200007C09C3619F450E8F52A02C0983649F4AC
:105A3000F20123FD959123FF91912F01992309F004
:105A4000B8CF892F8554833018F08052833038F4D2
:105A500044E050E0A40EB51E5FE359830FC09336B7
:105A600031F0933779F0933509F056C020C0F50135
:105A70008081898342E050E0A40EB51E610101E0FF
:105A800010E012C0F501C080D180F6FC03C06FEFBA
:105A90007FEF02C0692D70E042E050E0A40EB51E19
:105AA000C6010E948C2E8C015FE7F52214C0F5011F
:105AB000C080D180F6FC03C06FEF7FEF02C0692D7C
:105AC00070E042E050E0A40EB51EC6010E94812E97
:105AD0008C0150E8F52AF3FE07C01AC080E290E07E
